:020000040800F2
:1000000000500020ED500008954F0008A14F000857
:10001000A74F0008AD4F0008B34F000800000000D4
:10002000000000000000000000000000F13D00089A
:10003000B94F000800000000A13F0008E93F000898
:100040003551000835510008355100083551000878
:10005000C54F0008D14F0008355100083551000840
:100060003551000835510008355100083551000858
:100070003551000835510008355100083551000848
:10008000355100083551000835510008DD4F000892
:10009000F14F00083551000835510008355100086E
:1000A0003551000835510008355100083551000818
:1000B00035510008355100087150000835510008CD
:1000C00035510008355100083551000835510008F8
:1000D00035510008355100083551000835510008E8
:1000E0003551000835510008355100080000000066
:1000F0000000000000000000000000000000000000
:0C01000000000000000000005FF808F1A3
:1001100010B5054C237833B9044B13B10448AFF341
:1001200000800123237010BD10000020000000009B
:100130009051000808B5034B1BB103490348AFF3C6
:10014000008008BD0000000014000020905100084D
:1001500080B500AF084B1B68074A43F010031360DB
:10016000032000F07BFE002004F0BCFE04F072FED1
:100170000023184680BD00BF0020024080B400AFBD
:10018000054B1B781A46054B1B681344034A136042
:1001900000BFBD4680BC704704000020D44700204B
:1001A00080B400AF024B1B681846BD4680BC704748
:1001B000D447002080B584B000AF7860FFF7F0FF2F
:1001C000B8607B68FB60FB68B3F1FF3F05D0094B6B
:1001D0001B781A46FB681344FB6000BFFFF7E0FF83
:1001E0000246BB68D31AFA689A42F7D800BF1037A4
:1001F000BD4680BD0400002080B584B000AF7860AB
:100200007B68002B01D10123EDE07B6893F820305F
:10021000DBB2002B02D1786804F04EFA7B681B68D1
:100220001A687B681B6822F002021A60FFF7B8FFA9
:10023000F86012E0FFF7B4FF0246FB68D31A0A2BFE
:100240000BD97B685B6A43F400327B685A627B6837
:10025000052283F820200123C5E07B681B685B68CA
:1002600003F00203002BE5D17B681B681A687B68EA
:100270001B6842F001021A60FFF792FFF86012E07B
:10028000FFF78EFF0246FB68D31A0A2B0BD97B6857
:100290005B6A43F400327B685A627B68052283F80C
:1002A000202001239FE07B681B685B6803F001034B
:1002B000002BE5D07B681B7E012B08D17B681B6877
:1002C0001A687B681B6842F080021A6007E07B684E
:1002D0001B681A687B681B6822F080021A607B68C2
:1002E0005B7E012B08D17B681B681A687B681B68E2
:1002F00042F040021A6007E07B681B681A687B685E
:100300001B6822F040021A607B689B7E012B08D19B
:100310007B681B681A687B681B6842F020021A60C1
:1003200007E07B681B681A687B681B6822F0200264
:100330001A607B68DB7E012B08D17B681B681A681A
:100340007B681B6822F010021A6007E07B681B685C
:100350001A687B681B6842F010021A607B681B7F7A
:10036000012B08D17B681B681A687B681B6842F008
:1003700008021A6007E07B681B681A687B681B68C4
:1003800022F008021A607B685B7F012B08D17B6832
:100390001B681A687B681B6842F004021A6007E059
:1003A0007B681B681A687B681B6822F004021A606D
:1003B0007B689A687B68DB681A437B681B691A4311
:1003C0007B685B6942EA03017B685B685A1E7B6855
:1003D0001B680A43DA617B6800225A627B6801224B
:1003E00083F82020002318461037BD4680BD80B416
:1003F00087B000AF786039607B681B687B617B6881
:1004000093F82030FB74FB7C012B03D0FB7C022B88
:1004100040F0AA807B69D3F8003243F001027B6987
:10042000C3F800223B685B6903F01F03012202FA54
:1004300003F3FB607B69D3F81C22FB68DB431A40A3
:100440007B69C3F81C223B68DB69002B23D17B69E5
:10045000D3F80C22FB68DB431A407B69C3F80C22FB
:100460003B68DB6819043B685B689BB23A68526979
:1004700019437B69483243F832103B689B68190482
:100480003B681B689AB23B685B690A4379694833E9
:10049000DB000B445A603B68DB69012B22D17B698E
:1004A000D3F80C22FB681A437B69C3F80C223B6823
:1004B0001B6819043B685B689BB23A685269194330
:1004C0007B69483243F832103B689B6819043B68EB
:1004D000DB689AB23B685B690A4379694833DB00A1
:1004E0000B445A603B689B69002B09D17B69D3F8A8
:1004F0000422FB68DB431A407B69C3F8042207E04F
:100500007B69D3F80422FB681A437B69C3F8042291
:100510003B681B69002B09D17B69D3F81422FB6867
:10052000DB431A407B69C3F8142207E07B69D3F8E8
:100530001422FB681A437B69C3F814223B681B6AC8
:10054000012B07D17B69D3F81C22FB681A437B6916
:10055000C3F81C227B69D3F8003223F001027B69C7
:10056000C3F80022002306E07B685B6A43F4802224
:100570007B685A62012318461C37BD4680BC704711
:1005800080B584B000AF78607B6893F82030DBB230
:10059000012B2ED17B68022283F820207B681B6808
:1005A0001A687B681B6822F001021A60FFF7F8FDE9
:1005B000F86012E0FFF7F4FD0246FB68D31A0A2B3D
:1005C0000BD97B685B6A43F400327B685A627B68B4
:1005D000052283F82020012312E07B681B685B68FA
:1005E00003F00103002BE5D17B6800225A6200234F
:1005F00006E07B685B6A43F400227B685A62012351
:1006000018461037BD4680BD80B487B000AFF86093
:10061000B9607A603B60FB6893F82030FB75FB7D26
:10062000012B03D0FB7D022B40F0F480BB68002B34
:100630000ED1FB681B68DB6803F00303002B16D1A7
:10064000FB685B6A43F40012FB685A620123E8E02E
:10065000FB681B681B6903F00303002B07D1FB68D1
:100660005B6A43F40012FB685A620123D9E0FB681D
:100670001A68BB681B331B0113441B6803F0040298
:100680007B689A607B689B68002B0CD1FB681A68BA
:10069000BB681B331B0113441B685B0DC3F30A02C9
:1006A0007B681A600BE0FB681A68BB681B331B0190
:1006B00013441B68DB0823F060427B685A60FB68C8
:1006C0001A68BB681B331B0113441B685B0803F0EB
:1006D00001027B68DA60FB681A68BB681B331B0188
:1006E000134404331B6803F00F027B681A61FB6834
:1006F0001A68BB681B331B01134404331B681B0AB5
:10070000DAB27B689A61FB681A68BB681B331B010D
:10071000134404331B681B0C9AB27B685A61FB6854
:100720001A68BB681B01134403F5DC731B68DAB25B
:100730003B681A70FB681A68BB681B01134403F519
:10074000DC731B681A0A3B680133D2B21A70FB686B
:100750001A68BB681B01134403F5DC731B681A0C91
:100760003B680233D2B21A70FB681A68BB681B017F
:10077000134403F5DC731B681A0E3B680333D2B2D3
:100780001A70FB681A68BB681B01134403F5DE731B
:100790001A683B680433D2B21A70FB681A68BB68E7
:1007A0001B01134403F5DE731B681A0A3B6805330B
:1007B000D2B21A70FB681A68BB681B01134403F5B8
:1007C000DE731B681A0C3B680633D2B21A70FB68E2
:1007D0001A68BB681B01134403F5DE731B681A0E0D
:1007E0003B680733D2B21A70BB68002B08D1FB6894
:1007F0001B68DA68FB681B6842F02002DA6007E0D9
:10080000FB681B681A69FB681B6842F020021A61CA
:10081000002306E0FB685B6A43F48022FB685A62AF
:10082000012318461C37BD4680BC704780B485B094
:1008300000AF786039600023FB607B6893F820305C
:10084000FB72FB7A012B02D0FB7A022B0FD13B68A3
:10085000002B06D17B681B68DB6803F00303FB6099
:1008600005E07B681B681B6903F00303FB60FB6802
:1008700018461437BD4680BC704780B485B000AFC1
:10088000786039607B6893F82030FB73FB7B012B29
:1008900002D0FB7B022B09D17B681B6859697B68FE
:1008A0001B683A680A435A61002306E07B685B6A6A
:1008B00043F480227B685A62012318461437BD46F0
:1008C00080BC704780B58AB000AF786000237B623F
:1008D0007B681B685B693B627B681B685B68FB61CC
:1008E0007B681B689B68BB617B681B68DB687B61FE
:1008F0007B681B681B693B617B681B689B69FB60AD
:100900003B6A03F00103002B7CD0BB6903F00103B9
:10091000002B23D07B681B6801229A60BB6903F01F
:100920000203002B03D0786800F07DF916E0BB6964
:1009300003F00403002B04D07B6A43F400637B6262
:100940000CE0BB6903F00803002B04D07B6A43F47E
:1009500080537B6202E0786800F080F9BB6903F4A1
:100960008073002B24D07B681B684FF480729A60E0
:10097000BB6903F40073002B03D0786800F05CF9C6
:1009800016E0BB6903F48063002B04D07B6A43F458
:1009900000537B620CE0BB6903F40063002B04D0BE
:1009A0007B6A43F480437B6202E0786800F05FF981
:1009B000BB6903F48033002B24D07B681B684FF4A1
:1009C00080329A60BB6903F40033002B03D078684F
:1009D00000F03BF916E0BB6903F48023002B04D040
:1009E0007B6A43F400437B620CE0BB6903F40023A1
:1009F000002B04D07B6A43F480337B6202E078688A
:100A000000F03EF93B6A03F00803002B0CD07B6931
:100A100003F01003002B07D07B6A43F400737B6262
:100A20007B681B681022DA603B6A03F00403002B2A
:100A30000BD07B6903F00803002B06D07B681B6892
:100A40000822DA60786800F02DF93B6A03F00203AF
:100A5000002B09D07B681B68DB6803F00303002BC5
:100A600002D0786800F015F93B6A03F04003002BD0
:100A70000CD03B6903F01003002B07D07B6A43F4D2
:100A800080637B627B681B6810221A613B6A03F0FB
:100A90002003002B0BD03B6903F00803002B06D08A
:100AA0007B681B6808221A61786800F00DF93B6AC0
:100AB00003F01003002B09D07B681B681B6903F04F
:100AC0000303002B02D0786800F0F5F83B6A03F4CA
:100AD0000033002B0BD0FB6903F01003002B06D072
:100AE0007B681B6810225A60786800F0F6F83B6A51
:100AF00003F48033002B0BD0FB6903F00803002BB9
:100B000006D07B681B6808225A60786800F0EEF80F
:100B10003B6A03F40043002B75D0FB6903F0040328
:100B2000002B6CD03B6A03F48073002B08D0FB6869
:100B300003F00103002B03D07B6A43F001037B62C7
:100B40003B6A03F40073002B08D0FB6803F0020338
:100B5000002B03D07B6A43F002037B623B6A03F401
:100B60008063002B08D0FB6803F00403002B03D044
:100B70007B6A43F004037B623B6A03F40063002B4F
:100B80003DD0FB6803F07003002B38D0FB6803F006
:100B90007003302B17D0302B04D8102B09D0202B0A
:100BA0000CD024E0502B18D0602B1BD0402B0FD042
:100BB0001DE07B6A43F008037B6218E07B6A43F028
:100BC00010037B6213E07B6A43F020037B620EE03C
:100BD0007B6A43F040037B6209E07B6A43F0800359
:100BE0007B6204E07B6A43F480737B6200BF7B68B6
:100BF0001B689A697B681B6822F070029A617B68A7
:100C00001B6804225A607B6A002B08D07B685A6AF2
:100C10007B6A1A437B685A62786800F070F800BFFC
:100C20002837BD4680BD80B483B000AF786000BF78
:100C30000C37BD4680BC704780B483B000AF78608D
:100C400000BF0C37BD4680BC704780B483B000AF96
:100C5000786000BF0C37BD4680BC704780B483B05D
:100C600000AF786000BF0C37BD4680BC704780B4D1
:100C700083B000AF786000BF0C37BD4680BC7047C2
:100C800080B483B000AF786000BF0C37BD4680BC35
:100C9000704780B483B000AF786000BF0C37BD46AA
:100CA00080BC704780B483B000AF786000BF0C3761
:100CB000BD4680BC704780B483B000AF786000BF91
:100CC0000C37BD4680BC704780B483B000AF7860FD
:100CD00000BF0C37BD4680BC704780B483B000AF06
:100CE000786000BF0C37BD4680BC704780B483B0CD
:100CF00000AF786000BF0C37BD4680BC704780B441
:100D000083B000AF786000BF0C37BD4680BC704731
:100D100080B485B000AF78607B6803F00703FB60A8
:100D20000C4BDB68BB60BA684FF6FF031340BB6037
:100D3000FB681A02BB68134343F0BF6343F40033FC
:100D4000BB60044ABB68D36000BF1437BD4680BC9B
:100D5000704700BF00ED00E080B400AF044BDB68DB
:100D60001B0A03F007031846BD4680BC704700BF4E
:100D700000ED00E080B483B000AF0346FB71FB7967
:100D800003F01F02064997F907305B09012000FABA
:100D900002F241F8232000BF0C37BD4680BC7047EB
:100DA00000E100E080B483B000AF03463960FB711E
:100DB00097F90730002B0BDA3B68DAB20C49FB7964
:100DC00003F00F03043B1201D2B20B441A7609E080
:100DD0003B68DAB2074997F907301201D2B20B44E7
:100DE00083F8002300BF0C37BD4680BC704700BFAE
:100DF00000ED00E000E100E080B489B000AFF860F1
:100E0000B9607A60FB6803F00703FB61FB69C3F11B
:100E10000703042B28BF0423BB61FB690433062BA3
:100E200002D9FB69033B00E000237B614FF0FF32F6
:100E3000BB6902FA03F3DA43BB681A407B699A4044
:100E40004FF0FF317B6901FA03F3D9437B680B4014
:100E5000134318462437BD4680BC704780B582B026
:100E600000AF78607868FFF753FF00BF0837BD46D2
:100E700080BD80B586B000AF0346B9607A60FB7371
:100E800000237B61FFF768FF78617A68B968786949
:100E9000FFF7B2FF024697F90F3011461846FFF7E9
:100EA00081FF00BF1837BD4680BD80B582B000AF5E
:100EB0000346FB7197F907301846FFF75BFF00BF49
:100EC0000837BD4680BD000090B583B000AF002359
:100ED0007B606E4BDB6803F01003002B05D16B4B7E
:100EE000DB6803F00403002B0ED0694B9B687B602A
:100EF000674B4FF0FF329A6000F0FAF8786800F024
:100F0000D2F8634B00221A70604BDB6803F02003B9
:100F1000002B00F0A2805D4B2022DA605C4B1B7836
:100F2000DBB2002B00F09980594B1B78DBB2012B10
:100F30002DD1574B5B68013B554A5360544B5B685E
:100F4000002B17D0524B9B687B60786800F0A2F8AA
:100F50004F4B9B6803F580637B604D4A7B689360D1
:100F60004A4B1B69494A23F002031361786800F079
:100F70000FF972E04FF0FF337B60454A7B68936066
:100F8000434B00221A70786800F084F865E0404B0B
:100F90001B78DBB2022B0CD13C4B1B693B4A23F084
:100FA00004031361002000F075F8394B00221A7019
:100FB00053E0374B5B68013B354A5360344B5B6809
:100FC000002B26D0324B9B680233314A9360304B62
:100FD0009B687B602E4BD3E904124FF000034FF067
:100FE00000040B0C43EA0243140C294AC2E90434FE
:100FF000264B1B69254A23F001031361244B03F19F
:101000001004D4E900349BB21946786800F054F813
:1010100023E01F4B1B78DBB2032B05D11C4B9B68D5
:10102000184600F037F811E0194B1B78DBB2042B9F
:1010300006D1174B9B68023B184600F02BF805E0E1
:10104000134B9B68063B184600F024F8104B4FF0FA
:10105000FF329A600E4B00221A700D4B1B78DBB2E8
:10106000002B0ED1094B1B69084A23F007031361BB
:10107000064B1B69054A23F4A0531361044B00225D
:101080001A7600BF0C37BD4690BD00BF002002405D
:10109000D847002080B483B000AF786000BF0C3721
:1010A000BD4680BC704780B483B000AF786000BF9D
:1010B0000C37BD4680BC704780B483B000AF786009
:1010C0000B467B80084B0022DA61084B1B69074AFC
:1010D00043F0010313617B687A881A8000BF0C37E4
:1010E000BD4680BC704700BFD847002000200240AA
:1010F00080B483B000AF00237B60234BDB6803F038
:101100001003002B09D0214BDB6943F002031F4A77
:10111000D3617B6843F010037B601B4BDB6803F0FB
:101120000403002B09D0194BDB6943F00103174A74
:10113000D3617B6843F004037B60134BDB6903F0EE
:101140000103002B0BD0114BDB6943F004030F4A62
:10115000D3610D4BDB690C4A23F00103D3617B683B
:1011600040F20112934206D1074BDB69064A23F095
:101170000103D36102E0044A7B68D36000BF0C37EF
:10118000BD4680BC704700BF00200240D847002009
:1011900080B483B000AF78600B4B0022DA610B4B58
:1011A0001B690A4A43F002031361084A7B685361D2
:1011B000064B1B69054A43F04003136100BF0C371F
:1011C000BD4680BC704700BFD847002000200240C9
:1011D00080B48BB000AF786039600023FB610023DE
:1011E000BB6100237B6100233B6200233B61002342
:1011F0007B6227E101227B6A02FA03F3FB613B6811
:101200001B68FA691340BB61BA69FB699A4240F0F6
:1012100016813B685B68122B34D0122B0DD8022B41
:101220002BD0022B04D8002B31D0012B1CD048E04E
:10123000032B43D0112B1BD043E0874A934226D087
:10124000854A934206D8854A934220D0844A9342E5
:101250001DD036E0834A934219D0834A934216D078
:10126000824A934213D02CE03B68DB683B6228E063
:101270003B68DB6804333B6223E03B68DB68083390
:101280003B621EE03B68DB680C333B6219E03B6865
:101290009B68002B02D104233B6212E03B689B68F1
:1012A000012B05D108233B627B68FA691A6108E0CB
:1012B00008233B627B68FA695A6102E000233B62C3
:1012C00000BFBB69FF2B01D87B6801E07B6804335A
:1012D000FB60BB69FF2B02D87B6A9B0002E07B6A44
:1012E000083B9B003B61FB681A680F213B6901FAD0
:1012F00003F3DB431A40396A3B6901FA03F31A43EB
:10130000FB681A603B685B6803F08053002B00F0B9
:101310009680574B9B69564A43F001039361544BA7
:101320009B6903F00103BB60BB68524A7B6A9B0860
:10133000023352F823307B617B6A03F003039B0086
:101340000F2202FA03F3DB437A6913407B617B6867
:10135000494A934213D07B68484A93420DD07B6838
:10136000474A934207D07B68464A934201D1032300
:1013700006E0042304E0022302E0012300E000234E
:101380007A6A02F00302920093407A6913437B6108
:1013900038497B6A9B0802337A6941F823203B680D
:1013A0005B6803F48033002B06D0374B1A6836494C
:1013B000BB6913430B6006E0334B1A68BB69DB4320
:1013C000314913400B603B685B6803F40033002B2A
:1013D00006D02D4B5A682C49BB6913434B6006E07D
:1013E000294B5A68BB69DB43274913404B603B6874
:1013F0005B6803F48013002B06D0234B9A682249C4
:10140000BB6913438B6006E01F4B9A68BB69DB43E3
:101410001D4913408B603B685B6803F40013002B8D
:1014200006D0194BDA681849BB691343CB6006E054
:10143000154BDA68BB69DB4313491340CB607B6A09
:1014400001337B627B6A0F2B7FF6D4AE00BF2C3753
:10145000BD4680BC704700BF000021100000111085
:1014600000001210000031100000321000002210A5
:10147000001002400000014000080140000C014043
:1014800000100140001401400004014080B483B00A
:1014900000AF78600B467B8013467B707B78002B17
:1014A00003D07A887B681A6103E07B881A047B6822
:1014B0001A6100BF0C37BD4680BC704780B483B052
:1014C00000AF78600B467B807B68DA687B885A4087
:1014D0007B68DA6000BF0C37BD4680BC70470000F7
:1014E00080B584B000AF78600023FB600023BB6050
:1014F0007B68002B01D10123E7E07B6893F83D3046
:10150000DBB2002B06D17B68002283F83C20786890
:1015100003F0C6FB7B68242283F83D207B681B68B0
:101520001A687B681B6822F001021A6001F0F4FA65
:10153000B8607B685B68674A934207D8BB68664AB5
:10154000934294BF01230023DBB206E0BB68634AE9
:10155000934294BF01230023DBB2002B01D001236F
:10156000B3E0BB685E4AA2FB03239B0CFB607B6875
:101570001B68FA685A607B685B68564A934202D8D7
:10158000FB68013309E0FB684FF4967202FB03F33A
:10159000544AA2FB03239B0901337A681268136241
:1015A0007B685B684B4A93420DD8BB685A1E7B68C8
:1015B0005B685B00B2FBF3F30133C3F30B03042B53
:1015C00038BF04234FE07B689B68002B11D1BB68B8
:1015D000591E7B685A6813465B001344B1FBF3F352
:1015E0000133C3F30B03002B0CBF01230023DBB239
:1015F00012E0BB68591E7B685A6813469B0013446F
:101600009A001344B1FBF3F30133C3F30B03002B34
:101610000CBF01230023DBB2002B01D0012322E009
:101620007B689B68002B0ED1BB68591E7B685A688B
:1016300013465B001344B1FBF3F30133C3F30B0315
:1016400043F400430FE0BB68591E7B685A68134699
:101650009B0013449A001344B1FBF3F30133C3F32B
:101660000B0343F440437A681268D3617B68D969FD
:101670007B681A6A7B681B680A431A607B68196971
:101680007B68DA687B681B680A439A607B685969E3
:101690007B689A697B681B680A43DA607B681B6811
:1016A0001A687B681B6842F001021A607B6800229E
:1016B0001A647B68202283F83D207B6800221A632D
:1016C0007B68002283F83E20002318461037BD4671
:1016D00080BD00BFA08601007F841E00FF083D0082
:1016E00083DE1B43D34D621080B588B002AFF86033
:1016F0007A601A460B467B8113463B8100237B614F
:10170000FEF74EFD7861FB6893F83D30DBB2202B8D
:1017100040F0EE807B690093192301227749F86835
:1017200000F074FC0346002B01D00223E1E0FB68CB
:1017300093F83C30012B01D10223DAE0FB6801224F
:1017400083F83C20FB681B681B6803F00103012B36
:1017500007D0FB681B681A68FB681B6842F001022F
:101760001A60FB681B681A68FB681B6822F4006239
:101770001A60FB68212283F83D20FB68102283F861
:101780003E20FB6800221A64FB687A685A62FB6894
:101790003A895A85FB685A4ADA62FB685B8D9AB2CD
:1017A000FB681A8579897B693A6AF86800F0E4FA7F
:1017B0000346002B0FD0FB681B6C042B05D1FB6884
:1017C000002283F83C20012393E0FB68002283F889
:1017D0003C2003238DE000233B61FB681B685B69B1
:1017E0003B61FB681B689B693B613B6966E07A690A
:1017F000396AF86800F0C9FC0346002B0FD0FB687B
:101800001B6C042B09D1FB681B681A68FB681B68FA
:1018100042F400721A6001236BE0032369E0FB6865
:101820005B6A591CFA6851621A78FB681B681A6176
:10183000FB685B8D9BB2013B9AB2FB685A85FB68E3
:101840001B8D013B9AB2FB681A85FB681B685B69BC
:1018500003F00403042B19D1FB681B8D002B15D05A
:10186000FB685B6A591CFA6851621A78FB681B684E
:101870001A61FB685B8D9BB2013B9AB2FB685A858B
:10188000FB681B8D013B9AB2FB681A857A69396A3D
:10189000F86800F0B7FC0346002B0FD0FB681B6C08
:1018A000042B09D1FB681B681A68FB681B6842F4AB
:1018B00000721A6001231CE003231AE0FB681B8DF1
:1018C000002B94D1FB681B681A68FB681B6842F404
:1018D00000721A60FB68202283F83D20FB6800221A
:1018E00083F83E20FB68002283F83C20002300E0C0
:1018F000022318461837BD4680BD00BF0200100005
:101900000000FFFF80B58CB002AFF8607A601A4625
:101910000B467B8113463B8100237B62FEF740FC34
:101920007862FB6893F83D30DBB2202B40F01D82DB
:101930007B6A0093192301228749F86800F066FB4F
:101940000346002B01D0022310E2FB6893F83C30E1
:10195000012B01D1022309E2FB68012283F83C201C
:10196000FB681B681B6803F00103012B07D0FB68B1
:101970001B681A68FB681B6842F001021A60FB686A
:101980001B681A68FB681B6822F400621A60FB6817
:10199000222283F83D20FB68102283F83E20FB685A
:1019A00000221A64FB687A685A62FB683A895A8591
:1019B000FB686A4ADA62FB685B8D9AB2FB681A853B
:1019C00079897B6A3A6BF86800F058FA0346002B75
:1019D0000FD0FB681B6C042B05D1FB68002283F839
:1019E0003C200123C2E1FB68002283F83C20032352
:1019F000BCE1FB681B8D002B13D100233B62FB680D
:101A00001B685B693B62FB681B689B693B623B6AC6
:101A1000FB681B681A68FB681B6842F400721A6056
:101A200090E1FB681B8D012B1DD1FB681B681A68B8
:101A3000FB681B6822F480621A6072B60023FB61A7
:101A4000FB681B685B69FB61FB681B689B69FB614A
:101A5000FB69FB681B681A68FB681B6842F400722C
:101A60001A6062B66EE1FB681B8D022B1DD1FB680C
:101A70001B681A68FB681B6842F400621A6072B641
:101A80000023BB61FB681B685B69BB61FB681B686B
:101A90009B69BB61BB69FB681B681A68FB681B68B4
:101AA00022F480621A6062B64CE1FB681B681A6817
:101AB000FB681B6842F480621A6000237B61FB684C
:101AC0001B685B697B61FB681B689B697B617B6949
:101AD00038E1FB681B8D032B00F2EF80FB681B8D48
:101AE000012B27D17A6A396BF86800F0C8FB0346EE
:101AF000002B07D0FB681B6C202B01D1032335E1A1
:101B0000012333E1FB681B681869FB685B6A591C99
:101B1000FA685162C2B21A70FB681B8D013B9AB21F
:101B2000FB681A85FB685B8D9BB2013B9AB2FB6830
:101B30005A8507E1FB681B8D022B4CD17B6A009311
:101B40003B6B00220649F86800F060FA0346002B60
:101B500008D003230AE100BF020010000000FFFFCD
:101B60000400010072B6FB681B681A68FB681B68FA
:101B700042F400721A60FB681B681869FB685B6AB4
:101B8000591CFA685162C2B21A70FB681B8D013B86
:101B90009AB2FB681A85FB685B8D9BB2013B9AB2D7
:101BA000FB685A8562B6FB681B681869FB685B6A4C
:101BB000591CFA685162C2B21A70FB681B8D013B56
:101BC0009AB2FB681A85FB685B8D9BB2013B9AB2A7
:101BD000FB685A85B6E07B6A00933B6B002265493F
:101BE000F86800F013FA0346002B01D00323BDE090
:101BF000FB681B681A68FB681B6822F480621A6025
:101C000072B6FB681B681869FB685B6A591CFA6846
:101C10005162C2B21A70FB681B8D013B9AB2FB681D
:101C20001A85FB685B8D9BB2013B9AB2FB685A85B3
:101C30007B6A00933B6B00224E49F86800F0E6F99E
:101C40000346002B01D0032390E0FB681B681A6851
:101C5000FB681B6842F400721A60FB681B68186915
:101C6000FB685B6A591CFA685162C2B21A70FB6861
:101C70001B8D013B9AB2FB681A85FB685B8D9BB29A
:101C8000013B9AB2FB685A8562B6FB681B6818690B
:101C9000FB685B6A591CFA685162C2B21A70FB6831
:101CA0001B8D013B9AB2FB681A85FB685B8D9BB26A
:101CB000013B9AB2FB685A8544E07A6A396BF8684E
:101CC00000F0DDFA0346002B07D0FB681B6C202BCD
:101CD00001D103234AE0012348E0FB681B6818692F
:101CE000FB685B6A591CFA685162C2B21A70FB68E1
:101CF0001B8D013B9AB2FB681A85FB685B8D9BB21A
:101D0000013B9AB2FB685A85FB681B685B6903F06C
:101D10000403042B16D1FB681B681869FB685B6A17
:101D2000591CFA685162C2B21A70FB681B8D013BE4
:101D30009AB2FB681A85FB685B8D9BB2013B9AB235
:101D4000FB685A85FB681B8D002B7FF4C2AEFB68D5
:101D5000202283F83D20FB68002283F83E20FB68A8
:101D6000002283F83C20002300E002231846283795
:101D7000BD4680BD0400010080B588B002AFF860A8
:101D80007A603B600B467B81FB68DB6A7B617B6929
:101D9000042B06D07B69012B03D07B6913F5803FB0
:101DA00008D1FB681B681A68FB681B6842F48072E4
:101DB0001A600BE0FB681B6B122B07D1FB681B68DA
:101DC0001A68FB681B6842F480721A603B680093D3
:101DD0007B6800224FF00111F86800F017F9034604
:101DE000002B01D0032341E0FB681B69B3F5804F52
:101DF00008D17B89DBB21A46FB681B6802F0FE0241
:101E00001A6121E07B89DB11DBB203F00603DBB250
:101E100063F00F03DAB2FB681B681A613B687A68EB
:101E20001449F86800F043F90346002B07D0FB681B
:101E30001B6C042B01D1012318E0032316E07B89DE
:101E4000DAB2FB681B681A613B687A680A49F8686D
:101E500000F02DF90346002B07D0FB681B6C042B08
:101E600001D1012302E0032300E0002318461837C4
:101E7000BD4680BD080001000200010080B588B0A9
:101E800002AFF8607A603B600B467B81FB68DB6ADF
:101E90007B61FB681B681A68FB681B6842F4806200
:101EA0001A607B69042B06D07B69012B03D07B6908
:101EB00013F5803F08D1FB681B681A68FB681B6834
:101EC00042F480721A600BE0FB681B6B112B07D188
:101ED000FB681B681A68FB681B6842F480721A6012
:101EE0003B6800937B6800224FF00111F86800F016
:101EF0008DF80346002B01D003237FE0FB681B69AC
:101F0000B3F5804F08D17B89DBB243F00103DAB22D
:101F1000FB681B681A615FE07B89DB11DBB203F0B1
:101F20000603DBB263F00F03DAB2FB681B681A61C9
:101F30003B687A683349F86800F0B9F80346002B2B
:101F400007D0FB681B6C042B01D1012356E003234F
:101F500054E07B89DAB2FB681B681A613B687A68D7
:101F60002949F86800F0A3F80346002B07D0FB6866
:101F70001B6C042B01D1012340E003233EE000232E
:101F80003B61FB681B685B693B61FB681B689B6985
:101F90003B613B69FB681B681A68FB681B6842F47D
:101FA00080721A603B6800937B6800224FF0011139
:101FB000F86800F02BF80346002B01D003231DE046
:101FC0007B89DB11DBB203F00603DBB263F00E03A7
:101FD000DAB2FB681B681A613B687A680A49F868DC
:101FE00000F065F80346002B07D0FB681B6C042B40
:101FF00001D1012302E0032300E000231846183733
:10200000BD4680BD080001000200010080B584B01B
:1020100000AFF860B9603B601346FB711FE03B689E
:10202000B3F1FF3F1BD03B68002B07D0FEF7B8F899
:102030000246BB69D31A3A689A4210D2FB68002262
:102040001A63FB68202283F83D20FB68002283F896
:102050003E20FB68002283F83C20032323E0BB687A
:102060001B0CDBB2012B0DD1FB681B685B69DA43EB
:10207000BB6813409BB2002B0CBF01230023DBB2D3
:102080001A460CE0FB681B689B69DA43BB68134087
:102090009BB2002B0CBF01230023DBB21A46FB7955
:1020A0009A42BCD0002318461037BD4680BD80B58B
:1020B00084B000AFF860B9607A603B6040E0FB68D4
:1020C0001B685B6903F48063B3F5806F1CD1FB6808
:1020D0001B681A68FB681B6842F400721A60FB6890
:1020E0001B686FF480625A61FB6804221A64FB6803
:1020F00000221A63FB68202283F83D20FB6800223F
:1021000083F83C2001233CE07B68B3F1FF3F17D00C
:102110007B68002B07D0FEF743F802463B68D31AD2
:102120007A689A420CD2FB6800221A63FB6820226C
:1021300083F83D20FB68002283F83C20032320E045
:10214000BB681B0CDBB2012B0CD1FB681B685B6905
:10215000DA43BB6813409BB2002B14BF012300235A
:10216000DBB20BE0FB681B689B69DA43BB6813407A
:102170009BB2002B14BF01230023DBB2002B9ED1A6
:10218000002318461037BD4680BD80B584B000AF2F
:10219000F860B9607A6029E0F86800F0BAF80346A0
:1021A000002B01D0012329E0BB68B3F1FF3F1DD014
:1021B000BB68002B07D0FDF7F3FF02467B68D31AFC
:1021C000BA689A4212D2FB681B6C43F02002FB688B
:1021D0001A64FB6800221A63FB68202283F83D2002
:1021E000FB68002283F83C20032307E0FB681B68A0
:1021F0005B6903F08003802BCED100231846103793
:10220000BD4680BD80B584B000AFF860B9607A602B
:1022100029E0F86800F07DF80346002B01D0012387
:1022200029E0BB68B3F1FF3F1DD0BB68002B07D08E
:10223000FDF7B6FF02467B68D31ABA689A4212D2FB
:10224000FB681B6C43F02002FB681A64FB680022E9
:102250001A63FB68202283F83D20FB68002283F884
:102260003C20032307E0FB681B685B6903F0040361
:10227000042BCED1002318461037BD4680BD80B553
:1022800084B000AFF860B9607A6036E0FB681B6824
:102290005B6903F01003102B14D1FB681B686FF00F
:1022A00010025A61FB6800221A64FB6800221A635C
:1022B000FB68202283F83D20FB68002283F83C2045
:1022C000012322E0BB68002B07D0FDF769FF02461F
:1022D0007B68D31ABA689A420FD2FB681B6C43F032
:1022E0002002FB681A64FB68202283F83D20FB680B
:1022F000002283F83C20032307E0FB681B685B692E
:1023000003F04003402BC1D1002318461037BD46CF
:1023100080BD80B483B000AF78607B681B685B6968
:1023200003F48063B3F5806F14D17B681B686FF48E
:1023300080625A617B6804221A647B6800221A63F7
:102340007B68202283F83D207B68002283F83C20B4
:10235000012300E0002318460C37BD4680BC7047BF
:1023600080B586B000AF786000233B617B681B6856
:1023700003F00103002B00F08780924B5B6803F0B1
:102380000C03042B0CD08F4B5B6803F00C03082B61
:1023900012D18C4B5B6803F48033B3F5803F0BD1D3
:1023A000884B1B6803F40033002B6CD07B685B68A0
:1023B000002B68D101232DE27B685B68B3F5803F79
:1023C00006D1804B1B687F4A43F4803313602EE0B4
:1023D0007B685B68002B0CD17A4B1B68794A23F42D
:1023E00080331360774B1B68764A23F48023136095
:1023F0001DE07B685B68B3F5A02F0CD1714B1B68A7
:10240000704A43F4802313606E4B1B686D4A43F49B
:10241000803313600BE06B4B1B686A4A23F48033F4
:102420001360684B1B68674A23F4802313607B6842
:102430005B68002B13D0FDF7B3FE386108E0FDF7B1
:10244000AFFE02463B69D31A642B01D90323E1E1B5
:102450005C4B1B6803F40033002BF0D014E0FDF755
:102460009FFE386108E0FDF79BFE02463B69D31AE8
:10247000642B01D90323CDE1524B1B6803F40033D5
:10248000002BF0D100E000BF7B681B6803F0020363
:10249000002B63D04B4B5B6803F00C03002B0BD07D
:1024A000484B5B6803F00C03082B1CD1454B5B6861
:1024B00003F48033002B16D1424B1B6803F0020358
:1024C000002B05D07B681B69012B01D00123A1E102
:1024D0003C4B1B6823F0F8027B685B69DB003949E1
:1024E00013430B603AE07B681B69002B20D0364B0E
:1024F00001221A60FDF754FE386108E0FDF750FE36
:1025000002463B69D31A022B01D9032382E12D4BEA
:102510001B6803F00203002BF0D02A4B1B6823F04A
:10252000F8027B685B69DB00264913430B6015E00A
:10253000254B00221A60FDF733FE386108E0FDF7F5
:102540002FFE02463B69D31A022B01D9032361E116
:102550001C4B1B6803F00203002BF0D17B681B6847
:1025600003F00803002B39D07B689B69002B19D03E
:10257000164B01221A60FDF713FE386108E0FDF7E3
:102580000FFE02463B69D31A022B01D9032341E116
:102590000C4B5B6A03F00203002BF0D0012000F02B
:1025A000FFFA1BE0094B00221A60FDF7F9FD3861C4
:1025B0000EE0FDF7F5FD02463B69D31A022B07D961
:1025C000032327E1001002400000424280044242FF
:1025D000924B5B6A03F00203002BEAD17B681B6815
:1025E00003F00403002B00F0A6800023FB758B4B47
:1025F000DB6903F08053002B0DD1884BDB69874AE0
:1026000043F08053D361854BDB6903F08053FB605B
:10261000FB680123FB75824B1B6803F48073002B5E
:1026200018D17F4B1B687E4A43F480731360FDF71B
:10263000B7FD386108E0FDF7B3FD02463B69D31AE8
:10264000642B01D90323E5E0754B1B6803F4807309
:10265000002BF0D07B68DB68012B06D16F4B1B6A27
:102660006E4A43F0010313622DE07B68DB68002BA8
:102670000CD16A4B1B6A694A23F001031362674B52
:102680001B6A664A23F0040313621CE07B68DB6864
:10269000052B0CD1614B1B6A604A43F004031362A3
:1026A0005E4B1B6A5D4A43F0010313620BE05B4B18
:1026B0001B6A5A4A23F001031362584B1B6A574A9C
:1026C00023F0040313627B68DB68002B15D0FDF751
:1026D00067FD38610AE0FDF763FD02463B69D31AE6
:1026E00041F28832934201D9032393E04B4B1B6A9A
:1026F00003F00203002BEED014E0FDF751FD38612A
:102700000AE0FDF74DFD02463B69D31A41F28832DB
:10271000934201D903237DE0404B1B6A03F002037F
:10272000002BEED1FB7D012B05D13C4BDB693B4AF5
:1027300023F08053D3617B68DB69002B69D0374B72
:102740005B6803F00C03082B61D07B68DB69022B0C
:1027500046D1344B00221A60FDF722FD386108E0B3
:10276000FDF71EFD02463B69D31A022B01D9032354
:1027700050E02A4B1B6803F00073002BF0D17B68FC
:102780001B6AB3F5803F08D1244B5B6823F4003209
:102790007B689B68214913434B60204B5B6823F4A3
:1027A00074127B68196A7B685B6A0B431B4913438D
:1027B0004B601C4B01221A60FDF7F2FC386108E007
:1027C000FDF7EEFC02463B69D31A022B01D9032325
:1027D00020E0124B1B6803F00073002BF0D018E0D0
:1027E000104B00221A60FDF7DBFC386108E0FDF7B2
:1027F000D7FC02463B69D31A022B01D9032309E017
:10280000064B1B6803F00073002BF0D101E001239D
:1028100000E0002318461837BD4680BD0010024076
:10282000007000406000424280B584B000AF786024
:1028300039600023FB607E4B1B6803F007033A6896
:102840009A4210D97A4B1B6823F0070278493B68FB
:1028500013430B60764B1B6803F007033A689A42F8
:1028600001D00123E0E07B681B6803F00203002B2A
:1028700020D07B681B6803F00403002B05D06D4B50
:102880005B686C4A43F4E06353607B681B6803F049
:102890000803002B05D0674B5B68664A43F460531E
:1028A0005360644B5B6823F0F0027B689B6861496E
:1028B00013434B607B681B6803F00103002B6AD055
:1028C0007B685B68012B07D15A4B1B6803F400330C
:1028D000002B15D10123A7E07B685B68022B07D191
:1028E000544B1B6803F00073002B09D101239BE0BC
:1028F000504B1B6803F00203002B01D1012393E02E
:102900004C4B5B6823F003027B685B6849491343C7
:102910004B60FDF745FCF8607B685B68012B12D1CA
:102920000AE0FDF73DFC0246FB68D31A41F288320B
:10293000934201D9032377E03E4B5B6803F00C031D
:10294000042BEED127E07B685B68022B1DD10AE0E7
:10295000FDF726FC0246FB68D31A41F28832934207
:1029600001D9032360E0334B5B6803F00C03082BB1
:10297000EED110E0FDF714FC0246FB68D31A41F2D9
:102980008832934201D903234EE02A4B5B6803F05F
:102990000C03002BEED1264B1B6803F007033A68AB
:1029A0009A4210D2224B1B6823F0070220493B6851
:1029B00013430B601E4B1B6803F007033A689A42EF
:1029C00001D0012330E07B681B6803F00403002B77
:1029D00008D0184B5B6823F4E0627B68DB6815491C
:1029E00013434B607B681B6803F00803002B09D07E
:1029F000104B5B6823F460527B681B69DB000D4958
:102A000013434B6000F01CF801460A4B5B681B093E
:102A100003F00F03084AD35C21FA03F3074A13605B
:102A2000002002F05FFA002318461037BD4680BD33
:102A30000020024000100240F05100080C0000206D
:102A400090B48AB000AF2A4B3C1D0FCB84E80F0036
:102A5000284B1B883B800023FB610023BB610023C4
:102A60007B6200237B6100233B62234B5B68FB613D
:102A7000FB6903F00C03042B02D0082B03D02DE0DC
:102A80001E4B3B622DE0FB699B0C03F00F0307F12B
:102A90002802134413F8243C7B61FB6903F4803360
:102AA000002B13D0144B5B685B0C03F0010307F1A0
:102AB0002802134413F8283CBB617B690F4A02FBD0
:102AC00003F2BB69B2FBF3F37B6204E07B690C4A5F
:102AD00002FB03F37B627B6A3B6202E0074B3B62D3
:102AE00000BF3B6A18462837BD4690BC704700BF00
:102AF000A8510008B85100080010024000127A00E6
:102B000000093D0080B400AF024B1B681846BD466B
:102B100080BC70470C00002080B500AFFFF7F2FFCB
:102B20000146054B5B681B0A03F00703034AD35CAD
:102B300021FA03F3184680BD00100240005200083D
:102B400080B483B000AF786039607B680F221A6070
:102B5000114B5B6803F003027B685A600E4B5B68A5
:102B600003F0F0027B689A600B4B5B6803F4E06251
:102B70007B68DA60084B5B68DB0803F4E0627B6823
:102B80001A61064B1B6803F007023B681A6000BF1E
:102B90000C37BD4680BC7047001002400020024048
:102BA00080B485B000AF78600A4B1B680A4AA2FB6C
:102BB00003235B0A7A6802FB03F3FB6000BFFB6838
:102BC0005A1EFA60002BF9D100BF1437BD4680BCF5
:102BD000704700BF0C000020D34D621080B582B05A
:102BE00000AF78607B68002B01D101231DE07B687A
:102BF00093F83D30DBB2002B06D17B68002283F8CE
:102C00003C20786800F015F87B68022283F83D20AC
:102C10007B681A687B6804331946104600F058F93F
:102C20007B68012283F83D20002318460837BD4603
:102C300080BD80B483B000AF786000BF0C37BD4664
:102C400080BC704780B483B000AF78607B681B683D
:102C5000DA687B681B6842F00102DA607B681B68F7
:102C60001A687B681B6842F001021A60002318464C
:102C70000C37BD4680BC704780B582B000AF78602D
:102C80007B681B681B6903F00203022B22D17B685F
:102C90001B68DB6803F00203022B1BD17B681B68F7
:102CA0006FF002021A617B6801221A777B681B6849
:102CB0009B6903F00303002B03D0786800F0EDF864
:102CC00005E0786800F0E0F8786800F0EFF87B68DD
:102CD00000221A777B681B681B6903F00403042B2E
:102CE00022D17B681B68DB6803F00403042B1BD133
:102CF0007B681B686FF004021A617B6802221A77F6
:102D00007B681B689B6903F44073002B03D07868D1
:102D100000F0C3F805E0786800F0B6F8786800F0D5
:102D2000C5F87B6800221A777B681B681B6903F073
:102D30000803082B22D17B681B68DB6803F00803BB
:102D4000082B1BD17B681B686FF008021A617B6837
:102D500004221A777B681B68DB6903F00303002BEE
:102D600003D0786800F099F805E0786800F08CF8F6
:102D7000786800F09BF87B6800221A777B681B68F4
:102D80001B6903F01003102B22D17B681B68DB68E2
:102D900003F01003102B1BD17B681B686FF010022F
:102DA0001A617B6808221A777B681B68DB6903F469
:102DB0004073002B03D0786800F06FF805E0786866
:102DC00000F062F8786800F071F87B6800221A77EA
:102DD0007B681B681B6903F00103012B0ED17B6824
:102DE0001B68DB6803F00103012B07D17B681B68BC
:102DF0006FF001021A61786802F014F87B681B68B2
:102E00001B6903F08003802B0ED17B681B68DB6895
:102E100003F08003802B07D17B681B686FF0800272
:102E20001A61786800F0C3F87B681B681B6903F0BF
:102E30004003402B0ED17B681B68DB6803F0400326
:102E4000402B07D17B681B686FF040021A617868DD
:102E500000F035F87B681B681B6903F02003202B0A
:102E60000ED17B681B68DB6803F02003202B07D1A1
:102E70007B681B686FF020021A61786800F08EF89A
:102E800000BF0837BD4680BD80B483B000AF786016
:102E900000BF0C37BD4680BC704780B483B000AF24
:102EA000786000BF0C37BD4680BC704780B483B0EB
:102EB00000AF786000BF0C37BD4680BC704780B45F
:102EC00083B000AF786000BF0C37BD4680BC704750
:102ED00080B485B000AF786039600023FB607B6808
:102EE0001B68FB607B682A4A93420BD07B68B3F176
:102EF000804F07D07B68274A934203D07B68264ADD
:102F0000934208D1FB6823F07003FB603B685B6869
:102F1000FA681343FB607B681D4A93420BD07B68C1
:102F2000B3F1804F07D07B681A4A934203D07B6885
:102F3000194A934208D1FB6823F44073FB603B6855
:102F4000DB68FA681343FB60FB6823F08003FB60D7
:102F50003B685B69FA681343FB607B68FA681A6038
:102F60003B689A687B68DA623B681A687B689A6299
:102F70007B68074A934203D13B681A697B681A63EE
:102F80007B6801225A6100BF1437BD4680BC704780
:102F9000002C0140000400400008004080B483B0D1
:102FA00000AF786000BF0C37BD4680BC704780B46E
:102FB00083B000AF786000BF0C37BD4680BC70475F
:102FC00080B485B000AF0346FB800023FB60B7F9F7
:102FD0000630842B05D0B7F90620FB681344033371
:102FE000FB60FB6818461437BD4680BC704780B54F
:102FF00000AF00F01DFB0023184680BDF0B587B080
:1030000002AF786039607B685C687B681D687B68AC
:103010001B699EB27B68B3F908301846FFF7D0FFF2
:10302000024607F10C03019300923B6832462946A1
:10303000204600F09FF90346012B01D0002300E059
:10304000FB6818461437BD46F0BD80B584B000AFAC
:1030500078607B68FB60FB68002B01D0FB6800E0B8
:103060000123184600F0B0FA002318461037BD4679
:1030700080BD80B582B000AF786039607B68186829
:103080007B685B680022194600F01CF9034618466D
:103090000837BD4680BD80B483B000AF78607B68E0
:1030A00003F108027B685A607B684FF0FF329A6038
:1030B0007B6803F108027B68DA607B6803F1080231
:1030C0007B681A617B6800221A6000BF0C37BD461E
:1030D00080BC704780B483B000AF78607B6800220A
:1030E0001A6100BF0C37BD4680BC704780B485B004
:1030F00000AF786039607B685B68FB603B68FA68AA
:103100005A60FB689A683B689A60FB689B683A68FB
:103110005A60FB683A689A603B687A681A617B6813
:103120001B685A1C7B681A6000BF1437BD4680BC00
:10313000704780B485B000AF786039603B681B6829
:10314000BB60BB68B3F1FF3F03D17B681B69FB60C9
:103150000CE07B680833FB6002E0FB685B68FB60A7
:10316000FB685B681B68BA689A42F6D2FB685A68CB
:103170003B685A603B685B683A689A603B68FA68EB
:103180009A60FB683A685A603B687A681A617B68A3
:103190001B685A1C7B681A6000BF1437BD4680BC90
:1031A000704780B485B000AF78607B681B69FB60B6
:1031B0007B685B687A6892689A607B689B687A68CB
:1031C00052685A60FB685B687A689A4203D17B68F0
:1031D0009A68FB685A607B6800221A61FB681B686A
:1031E0005A1EFB681A60FB681B6818461437BD46F8
:1031F00080BC704780B584B000AF786039607B6870
:10320000FB60FB68002B09D14FF0500383F311885A
:10321000BFF36F8FBFF34F8FBB60FEE700F06AFE16
:10322000FB681A68FB68DB6BF968096C01FB03F348
:103230001A44FB685A60FB6800229A63FB681A68AC
:10324000FB689A60FB681A68FB68DB6B013BF968F6
:10325000096C01FB03F31A44FB68DA60FB68FF2288
:1032600083F84420FB68FF2283F845203B68002B4D
:1032700014D1FB681B69002B1AD0FB681033184669
:1032800000F0DCFB0346002B12D00D4B4FF08052B8
:103290001A60BFF34F8FBFF36F8F09E0FB681033E5
:1032A0001846FFF7F8FEFB6824331846FFF7F3FED5
:1032B00000F04EFE012318461037BD4680BD00BF0A
:1032C00004ED00E080B58AB002AFF860B960134643
:1032D000FB71FB68002B09D14FF0500383F3118879
:1032E000BFF36F8FBFF34F8F3B61FEE7BB68002BCF
:1032F00002D10023FB6104E0FB68BA6802FB03F320
:10330000FB61FB694833184600F0A8FEB861BB6951
:10331000002B0BD0BB6948337B61FA79BB69009302
:1033200013467A69B968F86800F005F8BB69184671
:103330002037BD4680BD80B584B000AFF860B9606D
:103340007A60FB70BB68002B03D1BB69BA691A6055
:1033500002E0BB697A681A60BB69FA68DA63BB6924
:10336000BA681A640121B869FFF744FF00BF10373B
:10337000BD4680BD80B58CB004AFF860B9603B60DD
:103380001346FB80FB889B00184600F067FE7861BF
:103390007B69002B0ED0542000F060FEF861FB69C1
:1033A000002B03D0FB697A691A6305E0786900F0A5
:1033B00017FF01E00023FB61FB69002B13D0FA88A3
:1033C00000230393FB690293FB6A0193BB6A00939A
:1033D0003B68B968F86800F00EF8F86900F08AF800
:1033E0000123BB6102E04FF0FF33BB61BB691846AC
:1033F0002037BD4680BD80B588B000AFF860B960A9
:103400007A603B603B6B1A6B7B6803F18043013B46
:103410009B001344BB61BB6923F00703BB61BB691D
:1034200003F00703002B09D04FF0500383F31188FA
:10343000BFF36F8FBFF34F8F7B61FEE70023FB610C
:1034400012E0BA68FB69134419783A6BFB691344BC
:1034500034330A461A70BA68FB6913441B78002B90
:1034600006D0FB690133FB61FB690F2BE9D900E052
:1034700000BF3B6B002283F84320BB6A062B01D9B7
:103480000623BB623B6BBA6ADA623B6BBA6A5A6468
:103490003B6B00229A643B6B04331846FFF71AFE1D
:1034A0003B6B18331846FFF715FE3B6B3A6B1A61FE
:1034B000BB6AC3F107023B6B9A613B6B3A6B5A6282
:1034C0003B6B0022DA643B6B002283F850203A68A1
:1034D000F968B86900F042FC02463B6B1A60FB6A6F
:1034E000002B02D0FB6A3A6B1A6000BF2037BD4642
:1034F00080BD000080B582B000AF786000F0FAFCBB
:103500002A4B1B680133294A1360294B1B68002B87
:1035100009D1274A7B681360244B1B68012B10D10B
:1035200000F006FB0DE0234B1B68002B09D1204B5C
:103530001B68DA6A7B68DB6A9A4202D81C4A7B689D
:1035400013601D4B1B6801331B4A13607B68DB6AE9
:1035500001229A40194B1B681343184A13607B6879
:10356000DA6A13469B0013449B00154A1A447B6891
:10357000043319461046FFF7B9FD00F0E9FC0D4B86
:103580001B68002B0ED00A4B1B68DA6A7B68DB6A6B
:103590009A4207D20B4B4FF080521A60BFF34F8F05
:1035A000BFF36F8F00BF0837BD4680BD2C010020E0
:1035B0002C000020380100204801002034010020A8
:1035C0003000002004ED00E080B584B000AF7860EA
:1035D0000023FB607B68002B16D0134B1B68002B6D
:1035E00009D04FF0500383F31188BFF36F8FBFF3FF
:1035F0004F8FBB60FEE700F061F80021786800F0B3
:1036000047FB00F069F8F860FB68002B07D1074B17
:103610004FF080521A60BFF34F8FBFF36F8F00BF20
:103620001037BD4680BD00BF5401002004ED00E00E
:1036300080B586B002AF1B4B01930023009300239B
:10364000802219491948FFF795FEF860FB68012BA5
:1036500015D14FF0500383F31188BFF36F8FBFF381
:103660004F8FBB60124B4FF0FF321A60114B01229B
:103670001A60114B00221A6000F0DEFB0DE0FB68BF
:10368000B3F1FF3F09D14FF0500383F31188BFF32B
:103690006F8FBFF34F8F7B60FEE700BF1037BD46D3
:1036A00080BD00BF50010020BC510008013B000854
:1036B0004C010020380100203001002080B400AF10
:1036C000044B1B680133034A136000BFBD4680BC36
:1036D000704700BF5401002080B584B000AF0023C4
:1036E000FB600023BB60414B1B68002B09D14FF0EE
:1036F000500383F31188BFF36F8FBFF34F8F3B608D
:10370000FEE700F0F7FB394B1B68013B374A1360BB
:10371000364B1B68002B61D1354B1B68002B5DD0ED
:103720002EE0344BDB68DB68FB60FB68183318461F
:10373000FFF737FDFB6804331846FFF732FDFB68DF
:10374000DB6A01229A402C4B1B6813432A4A136000
:10375000FB68DA6A13469B0013449B00274A1A440D
:10376000FB68043319461046FFF7C0FCFB68DA6AB1
:10377000234B1B68DB6A9A4202D3224B01221A6058
:103780001C4B1B68002BCCD1FB68002B01D000F038
:103790005BFA1D4B1B687B607B68002B10D000F030
:1037A00037F80346002B02D0164B01221A607B68C3
:1037B000013B7B607B68002BF1D1134B00221A6028
:1037C000104B1B68002B09D00123BB600F4B4FF03F
:1037D00080521A60BFF34F8FBFF36F8F00F0B8FBBA
:1037E000BB6818461037BD4680BD00BF540100209D
:1037F0002C010020EC0000203401002030000020CB
:103800002C000020400100203C01002004ED00E0DD
:1038100080B586B000AF00237B61504B1B68002B46
:1038200040F08C804E4B1B6801333B614C4A3B6936
:1038300013603B69002B1FD14A4B1B681B68002B90
:1038400009D04FF0500383F31188BFF36F8FBFF39C
:103850004F8F3B60FEE7434B1B68FB60424B1B688E
:10386000404A1360404AFB681360404B1B680133B9
:103870003E4A136000F0E8F93D4B1B683A699A42F2
:103880004DD3384B1B681B68002B01D1012300E08E
:103890000023002B04D0364B4FF0FF321A603EE07D
:1038A000304B1B68DB68DB68BB60BB685B687B60B8
:1038B0003A697B689A4203D22D4A7B6813602EE0F6
:1038C000BB6804331846FFF76CFCBB689B6A002B8F
:1038D00004D0BB6818331846FFF763FCBB68DB6A8B
:1038E00001229A40234B1B681343224A1360BB6892
:1038F000DA6A13469B0013449B001F4A1A44BB68B4
:10390000043319461046FFF7F1FBBB68DA6A1B4B1C
:103910001B68DB6A9A42B4D301237B61B1E7174B82
:103920001B68DA6A144913469B0013449B000B443E
:103930001B68012B07D901237B6104E0104B1B6836
:1039400001330F4A13600F4B1B68002B01D001237A
:103950007B617B6918461837BD4680BD5401002045
:1039600030010020E4000020E80000204401002095
:103970004C01002034010020300000202C000020E9
:103980003C0100204001002080B487B000AF264BEE
:103990001B68002B03D0254B01221A603EE0234B0D
:1039A00000221A60224B1B68FB60FB68B3FA83F3AA
:1039B000FB72FB7AC3F11F037B611E497A691346D0
:1039C0009B0013449B000B441B68002B09D14FF054
:1039D000500383F31188BFF36F8FBFF34F8F7B606A
:1039E000FEE77A6913469B0013449B00114A134477
:1039F0003B613B695B685A683B695A603B695A683E
:103A00003B6908339A4204D13B695B685A683B6959
:103A10005A603B695B68DB68074A136000BF1C376C
:103A2000BD4680BC704700BF54010020400100200B
:103A300034010020300000202C00002080B586B02A
:103A400000AF78607B68DB68DB683B613B69002B1B
:103A500009D14FF0500383F31188BFF36F8FBFF389
:103A60004F8FFB60FEE73B6918331846FFF799FB61
:103A70001D4B1B68002B1CD13B6904331846FFF714
:103A800090FB3B69DB6A01229A40184B1B68134389
:103A9000164A13603B69DA6A13469B0013449B0085
:103AA000134A1A443B69043319461046FFF71EFBBC
:103AB00005E03B69183319460E48FFF717FB3B69D1
:103AC000DA6A0D4B1B68DB6A9A4205D901237B61D8
:103AD0000A4B01221A6001E000237B617B691846D2
:103AE0001837BD4680BD00BF5401002034010020BE
:103AF00030000020EC0000202C00002040010020BD
:103B000080B582B000AF786000F052F8064B1B68B9
:103B1000012BF9D9054B4FF080521A60BFF34F8F3C
:103B2000BFF36F8FF0E700BF3000002004ED00E02E
:103B300080B582B000AF00237B600CE07A6813464A
:103B40009B0013449B00124A13441846FFF7A3FA44
:103B50007B6801337B607B68062BEFD90D48FFF74C
:103B60009AFA0D48FFF797FA0C48FFF794FA0C48B9
:103B7000FFF791FA0B48FFF78EFA0B4B054A1A60D4
:103B80000A4B054A1A6000BF0837BD4680BD00BF1A
:103B900030000020BC000020D0000020EC000020FD
:103BA0000001002018010020E4000020E8000020AF
:103BB00080B582B000AF28E0FFF780FD174B1B688F
:103BC000002B0CBF01230023DBB27B60FFF784FDD9
:103BD0007B68002B19D100F08DF9104BDB68DB6896
:103BE0003B603B6804331846FFF7DBFA0C4B1B685D
:103BF000013B0B4A13600B4B1B68013B094A1360E6
:103C000000F0A6F9386800F00FF8064B1B68002B8F
:103C1000D2D100BF0837BD4680BD00BF00010020E3
:103C20002C0100201401002080B582B000AF786024
:103C30007B681B6B184600F0D3FA786800F0D0FA66
:103C400000BF0837BD4680BD80B483B000AF0E4BC7
:103C50001B681B68002B01D1012300E00023002B0F
:103C600004D00A4B4FF0FF321A6008E0064B1B6885
:103C7000DB68DB687B607B685B68044A136000BFBD
:103C80000C37BD4680BC7047E40000204C0100208A
:103C900080B584B000AF78603960294B1B68FB6049
:103CA000284B1B6804331846FFF77BFA0346002BAA
:103CB0000BD1244B1B68DB6A012202FA03F3DA43BF
:103CC000214B1B681340204A13607B68B3F1FF3F10
:103CD0000AD13B68002B07D01A4B1B6804331946E6
:103CE0001A48FFF703FA26E0FA687B681344BB60C2
:103CF000144B1B68BA685A60BA68FB689A4209D2CA
:103D0000134B1A680F4B1B68043319461046FFF714
:103D100010FA10E00F4B1A680A4B1B68043319465F
:103D20001046FFF706FA0C4B1B68BA689A4202D29B
:103D3000094ABB68136000BF1037BD4680BD00BF95
:103D4000300100202C000020340100201801002048
:103D5000E8000020E40000204C01002080B485B081
:103D600000AFF860B9607A60FB68043BFB60FB68F9
:103D70004FF080721A60FB68043BFB60BB6823F065
:103D80000102FB681A60FB68043BFB60084AFB68A1
:103D90001A60FB68143BFB607A68FB681A60FB687A
:103DA000203BFB60FB6818461437BD4680BC70475B
:103DB000B53D000880B483B000AF0C4B1B68B3F175
:103DC000FF3F09D04FF0500383F31188BFF36F8F8B
:103DD000BFF34F8F7B60FEE74FF0500383F31188F2
:103DE000BFF36F8FBFF34F8F3B60FEE708000020EB
:103DF000074B19680868B0E8F00F80F30988BFF333
:103E00006F8F4FF0000080F311884EF00D0E704759
:103E10002C00002000BF00BF06480068006880F347
:103E2000088862B661B6BFF34F8FBFF36F8F00DFB4
:103E300000BF00BF08ED00E080B584B000AF284BA4
:103E4000FB60FB681B78DBB2BB60FB68FF221A706B
:103E5000FB681B78DBB2FB71FB79DBB203F050032C
:103E6000DAB2204B1A70204B07221A6009E01E4B71
:103E70001B68013B1C4A1360FB79DBB25B00DBB2C1
:103E8000FB71FB79DBB203F08003802BEFD0164B84
:103E90001B681B02144A1360134B1B6803F4E06396
:103EA000114A1360BB68DAB2FB681A700F4B1B68CB
:103EB0000E4A43F4700313600C4B1B680B4A43F02B
:103EC0007043136000F0B0F8094B00221A60FFF74E
:103ED000A3FFFFF76FFF002318461037BD4680BDD4
:103EE00000E400E0580100205C01002020ED00E02B
:103EF0000800002080B483B000AF4FF0500383F37C
:103F00001188BFF36F8FBFF34F8F7B600E4B1B6821
:103F100001330D4A13600C4B1B68012B0ED10B4B68
:103F20001B68DBB2002B09D04FF0500383F31188DC
:103F3000BFF36F8FBFF34F8F3B60FEE700BF0C37BF
:103F4000BD4680BC704700BF0800002004ED00E0C3
:103F500080B483B000AF104B1B68002B09D14FF029
:103F6000500383F31188BFF36F8FBFF34F8F7B60D4
:103F7000FEE7094B1B68013B074A1360064B1B68B1
:103F8000002B04D100233B603B6883F3118800BF02
:103F90000C37BD4680BC70470800002000000000C0
:103FA000EFF30980BFF36F8F0D4B1A6820E9F00F14
:103FB00010602DE908404FF0500080F31188FFF7A2
:103FC000E3FC4FF0000080F31188BDE80840196859
:103FD0000868B0E8F00F80F30988BFF36F8F70476F
:103FE0002C00002000BF00BF80B582B000AF4FF0B2
:103FF000500383F31188BFF36F8FBFF34F8F7B6044
:10400000FFF706FC0346002B03D0064B4FF080520F
:104010001A6000233B603B6883F3118800BF0837B8
:10402000BD4680BD04ED00E080B400AF074B1B68C7
:10403000074AA2FB03239B09064A013B1360064B78
:1040400007221A6000BFBD4680BC70470C000020EC
:10405000D34D621014E000E010E000E080B58AB0BB
:1040600000AF78600023FB61FFF728FB574B1B680C
:10407000002B01D100F00CF9554B1A687B681340F6
:10408000002B40F08C807B68002B1CD008227B68C2
:1040900013447B607B6803F00703002B13D07B681D
:1040A00023F0070308337B607B6803F00703002BD2
:1040B00009D04FF0500383F31188BFF36F8FBFF324
:1040C0004F8F7B61FEE77B68002B68D0414B1B68FC
:1040D0007A689A4263D8404B3B623F4B1B687B62D5
:1040E00004E07B6A3B627B6A1B687B627B6A5B687D
:1040F0007A689A4203D97B6A1B68002BF1D1334B53
:104100001B687A6A9A424AD03B6A1B6808221344A9
:10411000FB617B6A1A683B6A1A607B6A5A687B6833
:10412000D21A08235B009A421ED97A6A7B6813442C
:10413000BB61BB6903F00703002B09D04FF05003AC
:1041400083F31188BFF36F8FBFF34F8F3B61FEE79F
:104150007B6A5A687B68D21ABB695A607B6A7A6844
:104160005A60B86900F0F6F81A4B1A687B6A5B6807
:10417000D31A184A1360174B1A68184B1B689A42D7
:1041800003D2144B1B68154A13607B6A5A68104BA4
:104190001B681A437B6A5A607B6A00221A60FFF729
:1041A0009BFAFB6903F00703002B09D04FF0500383
:1041B00083F31188BFF36F8FBFF34F8FFB60FEE770
:1041C000FB6918462837BD4680BD00BFB8470020B0
:1041D000C4470020BC470020B0470020C047002053
:1041E00080B586B000AF78607B687B617B68002B10
:1041F00046D008235B427A6913447B617B693B614B
:104200003B695A68204B1B681340002B09D14FF0C3
:10421000500383F31188BFF36F8FBFF34F8FFB60A1
:10422000FEE73B691B68002B09D04FF0500383F376
:104230001188BFF36F8FBFF34F8FBB60FEE73B6901
:104240005A68114B1B681340002B19D03B691B683F
:10425000002B15D13B695A680B4B1B68DB431A4096
:104260003B695A60FFF72AFA3B695A68074B1B689B
:104270001344064A1360386900F06CF8FFF72CFA13
:1042800000BF1837BD4680BDC4470020BC47002092
:1042900080B485B000AF44F25063BB60274BFB6035
:1042A000FB6803F00703002B0CD0FB680733FB60AF
:1042B000FB6823F00703FB60BA68FB68D31A1F4A48
:1042C0001344BB60FB687B601D4A7B6813601C4B1A
:1042D00000225A607B68BA681344FB600822FB68BE
:1042E0009B1AFB60FB6823F00703FB60FB68154A21
:1042F0001360144B1B6800225A60124B1B6800228B
:104300001A607B683B603B68FA68D21A3B685A6067
:104310000C4B1A683B681A603B685B680A4A13607A
:104320003B685B68094A1360094B4FF000421A6012
:1043300000BF1437BD4680BC704700BF600100203D
:10434000B0470020B8470020C0470020BC470020ED
:10435000C447002080B485B000AF7860274BFB6075
:1043600002E0FB681B68FB60FB681B687A689A4286
:10437000F7D8FB68BB60FB685B68BA6813447A686F
:104380009A4208D1FB685A687B685B681A44FB68EC
:104390005A60FB687B607B68BB607B685B68BA685F
:1043A0001A44FB681B689A4218D1FB681A68144BC0
:1043B0001B689A420DD07B685A68FB681B685B6873
:1043C0001A447B685A60FB681B681A687B681A602D
:1043D00008E00B4B1A687B681A6003E0FB681A68F8
:1043E0007B681A60FA687B689A4202D0FB687A6838
:1043F0001A6000BF1437BD4680BC7047B04700202C
:10440000B847002080B483B000AF786039607B6823
:104410003A681A617B6818460C37BD4680BC704705
:1044200080B586B002AF7860786800F01FF8034668
:10443000002B14BF01230023DBB2002B0ED00A4B4C
:104440001B88BB817B68186907F10C026423009309
:104450000223EC21FDF748F9012300E00023184670
:104460001037BD4680BD00BFC451000880B586B07E
:1044700002AF7860D023FB737B68186907F10F02E5
:10448000642300930123EC21FDF72EF97B68186962
:1044900007F10F02642300930123EC21FDF732FAA8
:1044A000FB7B602B0CBF01230023DBB218461037C7
:1044B000BD4680BD90B59FB002AF78608823FB7386
:1044C0007B68186907F10F02642300930123EC2134
:1044D000FDF70AF97B68186907F11002642300935D
:1044E0005F23EC21FDF70EFA7B7C1B023A7C134321
:1044F0004FF000047A68C2E90634FB7C1B02BA7CE8
:1045000013434FF000047A68C2E908347B7D1B0234
:104510003A7D13434FF000047A68C2E90A34FB7D08
:104520001B02BA7D13434FF000047A68C2E90C34D1
:104530007B7E1B023A7E13434FF000047A68C2E987
:104540000E34FB7E1B02BA7E13434FF000047A68E0
:10455000C2E910347B7F1B023A7F13434FF0000403
:104560007A68C2E91234FB7F1B02BA7F13434FF013
:1045700000047A68C2E9143497F821301B0297F8D6
:10458000202013434FF000047A68C2E9163497F8EC
:1045900023301B0297F8222013434FF000047A685F
:1045A000C2E9183497F825301B0297F824201343EA
:1045B0004FF000047A68C2E91A3497F827301B02DA
:1045C00097F8262013434FF000047A68C2E91C34A0
:1045D00097F82930DBB24FF000047A68C2E91E3444
:1045E00097F869301B0297F86A2013434FF00004D4
:1045F0007A68C2E9203497F86B30DBB24FF00004E0
:104600007A68C2E9223497F86D301B0297F86C2063
:1046100013434FF000047A68C2E9243497F86F30EE
:104620001B0297F86E2013434FF000047A68C2E92A
:10463000263497F87030DBB24FF000047A68C2E994
:10464000283400BF7437BD4690BD000080B500AF70
:10465000174B184A1A60164B06225A60144B002258
:104660009A60134B0022DA60114B4FF440221A611A
:104670000F4B4FF480125A610D4B00221A760C4BEF
:1046800000225A760A4B00229A76094B0022DA76EB
:10469000074B00221A77064B00225A770448FBF793
:1046A000ABFD0346002B01D000F0CEFB00BF80BD68
:1046B000F84700200064004080B588B000AF786003
:1046C00007F1100300221A605A609A60DA607B6872
:1046D0001B68244A934241D1234BDB69224A43F0B1
:1046E0000073D361204BDB6903F00073FB60FB6850
:1046F0001D4B9B691C4A43F0040393611A4B9B6951
:1047000003F00403BB60BB684FF400633B6100230C
:104710007B610023BB6107F1100319461348FCF7C6
:1047200057FD4FF480533B6102237B610323FB6100
:1047300007F1100319460D48FCF74AFD0022052138
:104740001320FCF796FB1320FCF7AFFB002205219A
:104750001420FCF78EFB1420FCF7A7FB00BF2037CA
:10476000BD4680BD006400400010024000080140CA
:1047700080B58AB000AF01233B6201237B61002337
:104780003B6100233B6000237B600023BB60002370
:10479000FB600023BB610123FB613B4619460348D4
:1047A000FBF725FE00BF2837BD4680BDF847002037
:1047B000B0B588B000AF114B07F10C041D460FCD0A
:1047C0000FC42B68236007F10C0300211846FEF785
:1047D00015FC02460A4B1A600A4A3B1D92E8030088
:1047E00083E803003B1D00211846FEF742FC024609
:1047F000054B1A6000BF2037BD46B0BDD45100083C
:10480000C8470020E8510008CC47002080B5B8B068
:1048100000AF786007F130031A491846FFF7F2FD40
:1048200007F12C03184600F0DBF807F130031846B7
:10483000FFF7F6FD0023A7F8DE3007F13003184636
:10484000FFF738FE02211048FCF717F800210E4848
:10485000FBF7ECFF034687F8DD3097F8DD30002BDF
:104860000AD007F1080307F1100200210648FBF700
:10487000CBFE034687F8DC304FF4FA70FEF7E5FB19
:10488000FAE700BF20480020F847002080B588B034
:1048900000AF07F1100300221A605A609A60DA60D4
:1048A0004B4B9B694A4A43F010039361484B9B6909
:1048B00003F01003FB60FB68454B9B69444A43F0DF
:1048C00020039361424B9B6903F02003BB60BB68EC
:1048D0003F4B9B693E4A43F0040393613C4B9B6909
:1048E00003F004037B607B68394B9B69384A43F0D3
:1048F00008039361364B9B6903F008033B603B68F8
:1049000001224FF460413348FCF7C0FD01224FF60D
:104910003A713148FCF7BAFD01224FF401412F48AA
:10492000FCF7B4FD4FF400533B6101237B6100238E
:10493000BB610323FB6107F1100319462548FCF70F
:1049400047FC4FF440433B6111237B610023BB6173
:104950000223FB6107F1100319461E48FCF738FCDF
:1049600040F2FF633B6103237B6107F110031946AB
:104970001A48FCF72DFC05233B6103237B6107F1FB
:10498000100319461448FCF723FC4FF63A733B61B9
:1049900011237B610023BB610223FB6107F110033C
:1049A00019460D48FCF714FC4FF401433B611123F9
:1049B0007B610023BB610223FB6107F110031946F1
:1049C0000648FCF705FC00BF2037BD4680BD00BF90
:1049D0000010024000100140000C0140000801409E
:1049E00080B483B000AF78607B6818460C37BD4652
:1049F00080BC704780B582B000AF78600B467B808A
:104A00007B8803F00103002B06D000224FF4807155
:104A10008948FCF73BFD05E001224FF48071864890
:104A2000FCF734FD7B8803F00203002B05D0002245
:104A300002218248FCF72AFD04E0012202217F487E
:104A4000FCF724FD7B8803F00403002B06D0002232
:104A50004FF400417948FCF719FD05E001224FF4BD
:104A600000417648FCF712FD7B8803F00803002B19
:104A700006D000224FF400416F48FCF707FD05E027
:104A800001224FF400416C48FCF700FD7B8803F0E5
:104A90001003002B06D000224FF480416748FCF73A
:104AA000F5FC05E001224FF480416448FCF7EEFC80
:104AB0007B8803F02003002B05D0002208215F48EB
:104AC000FCF7E4FC04E0012208215C48FCF7DEFC72
:104AD0007B8803F04003002B06D000224FF40051E6
:104AE0005648FCF7D3FC05E001224FF4005153482F
:104AF000FCF7CCFC7B8803F08003002B05D0002260
:104B000010214E48FCF7C2FC04E0012210214B4862
:104B1000FCF7BCFC7B8803F48073002B06D00022DA
:104B20004FF480514548FCF7B1FC05E001224FF4F9
:104B300080514248FCF7AAFC7B8803F40073002BE9
:104B400005D0002220213D48FCF7A0FC04E0012212
:104B500020213A48FCF79AFC7B8803F48063002B01
:104B600006D000224FF480613448FCF78FFC05E04A
:104B700001224FF480613148FCF788FC7B8803F404
:104B80000063002B06D000224FF480712B48FCF705
:104B90007DFC05E001224FF480712848FCF776FC8B
:104BA0007B8803F48053002B06D000224FF4006171
:104BB0002248FCF76BFC05E001224FF400611F481E
:104BC000FCF764FC7B8803F40053002B06D0002222
:104BD0004FF400711948FCF759FC05E001224FF42D
:104BE00000711648FCF752FC7B8803F48043002BCD
:104BF00006D000224FF480411148FCF747FC05E045
:104C000001224FF480410E48FCF740FCB7F9023016
:104C1000002B06DA00224FF400410948FCF736FC6D
:104C200005E001224FF400410548FCF72FFC00BFCE
:104C30000837BD4680BD00BF00080140000C0140A0
:104C40000010014080B500AF124B134A1A60114B9F
:104C5000124A5A600F4B00229A600E4B0022DA6013
:104C60000C4B4FF480421A610A4B00225A61094BE7
:104C700000229A61074B0022DA61064B00221A6279
:104C80000448FCF72DFC0346002B01D000F0DCF8B3
:104C900000BF80BD2048002000540040A0860100D5
:104CA00080B588B000AF786007F1100300221A6069
:104CB0005A609A60DA607B681B68224A93423DD151
:104CC000214B9B69204A43F0080393611E4B9B696B
:104CD00003F00803FB60FB68C0233B6112237B6188
:104CE0000323FB6107F1100319461848FCF770FA1B
:104CF000154BDB69144A43F40013D361124BDB6993
:104D000003F40013BB60BB68114B1B681A68104B9F
:104D10001B6842F400421A606420FBF74BFA0C4B0C
:104D20001B681A680A4B1B6822F400421A60084B81
:104D30001B689B6903F00203002BE5D100BF2037FD
:104D4000BD4680BD0054004000100240000C0140F0
:104D50002048002080B500AFFBF7FAF900F012F808
:104D6000FFF794FDFFF772FCFFF76CFFFFF700FD04
:104D70000348FBF705FCFFF71BFDFEF738F9FEE7DC
:104D8000F847002080B590B000AF07F11803282243
:104D90000021184600F0F4F93B1D00221A605A6009
:104DA0009A60DA601A610123BB614FF48033FB61C2
:104DB00000233B620123BB6202237B634FF48033F9
:104DC000BB634FF48013FB6307F118031846FDF72C
:104DD000C7FA0346002B14BF01230023DBB2002BCC
:104DE00001D000F031F80F237B600223BB60002369
:104DF000FB604FF480633B6100237B613B1D01211D
:104E00001846FDF711FD0346002B14BF01230023B4
:104E1000DBB2002B01D000F017F800BF4037BD46D1
:104E200080BD000080B582B000AF78607B681B68F1
:104E3000044A934201D1FBF7A1F900BF0837BD46F0
:104E400080BD00BF0008004080B400AF00BFBD4679
:104E500080BC704780B584B000AF204B9B691F4A6F
:104E600043F0010393611D4B9B6903F00103BB6099
:104E7000BB681A4BDB69194A43F08053D361174B67
:104E8000DB6903F080537B607B6800220F216FF0A9
:104E90000100FBF7EEFF002205210420FBF7E9FFEC
:104EA0000420FCF702F8002205210520FBF7E1FFB2
:104EB0000520FBF7FAFF0A4B5B68FB60FB6823F0F9
:104EC000E063FB60FB6843F00073FB60044AFB682F
:104ED000536000BF1037BD4680BD00BF00100240C8
:104EE0000000014080B58CB000AF78600023FB6209
:104EF0000023BB62002279681E20FBF7BAFF1E2048
:104F0000FBF7D3FF1F4BDB691E4A43F00403D36159
:104F10001C4BDB6903F00403FB60FB6807F1100224
:104F200007F1140311461846FDF70AFEFDF7F4FDDC
:104F300003465B00FB62FB6A134AA2FB03239B0C44
:104F4000013BBB62114B124A1A60104B40F2E73230
:104F5000DA600E4ABB6A53600C4B00221A610B4B9D
:104F600000229A600948FDF739FE0346002B04D160
:104F70000648FDF767FE034600E001231846303778
:104F8000BD4680BD0010024083DE1B4374480020F4
:104F90000008004080B400AF00BFBD4680BC704731
:104FA00080B400AFFEE780B400AFFEE780B400AF8E
:104FB000FEE780B400AFFEE780B400AF00BFBD469F
:104FC00080BC704780B500AFFBF77EFF00BF80BD9F
:104FD00080B400AF00BFBD4680BC704780B500AF55
:104FE0000248FBF76FFC00BF80BD00BFF847002000
:104FF00080B58CB000AF1C48FBF764FC4FF4005147
:105000001A48FCF75BFA00211748FBF70FFC034630
:10501000002B14BF01230023DBB2002B1FD007F1AC
:10502000080307F1100200210F48FBF7EDFA0346D1
:1050300087F82F303B1D1846FFF7D2FC3B69012B48
:10504000E1D17B7A1AB23B7A1B021BB213431BB22B
:105050009AB23B1D11461846FFF7CCFCD3E700BFC0
:105060003037BD4680BD00BFF8470020001001402A
:1050700080B500AF0248FDF7FFFD00BF80BD00BF57
:105080007448002080B400AF154B1B68144A43F0ED
:1050900001031360124B5A681149124B13404B60C5
:1050A0000F4B1B680E4A23F0847323F48033136084
:1050B0000B4B1B680A4A23F480231360084B5B6880
:1050C000074A23F4FE035360054B4FF41F029A6016
:1050D000054B4FF000629A6000BFBD4680BC704730
:1050E000001002400000FFF800ED00E0002103E0A6
:1050F0000B4B5B58435004310A480B4B42189A4201
:10510000F6D30A4A02E0002342F8043B084B9A42D5
:10511000F9D3FFF7B7FF00F00FF8FFF71BFE70475A
:105120001052000800000020100000201000002095
:10513000B4480020FEE7000070B500250C4E0D4C71
:10514000A41BA410A54209D100F022F800250A4EA4
:105150000A4CA41BA410A54205D170BD56F82530F9
:1051600098470135EEE756F8253098470135F2E7C4
:105170000852000808520008085200080C520008A3
:1051800003460244934200D1704703F8011BF9E73C
:10519000F8B500BFF8BC08BC9E467047F8B500BF24
:0851A000F8BC08BC9E467047F4
:1051A80002030405060708090A0B0C0D0E0F101060
:1051B8000102000049444C4500000000F43F000093
:1051C800744C65645374617475730000C8510008A9
:1051D8000D480008FEFF00000000000080000000ED
:1051E80010000000040000000000000000000000A3
:1051F8000102030406070809000000000102030475
:045208003501000864
:04520C001101000884
:105210001000000001000000AAAAAAAA00A24A04E5
:04000005080050EDB2
:00000001FF
